{
  "_format": "hh-sol-artifact-1",
  "contractName": "VoltPair",
  "sourceName": "contracts/base/core/VoltPair.sol",
  "abi": [
    {
      "inputs": [],
      "stateMutability": "nonpayable",
      "type": "constructor"
    },
    {
      "anonymous": false,
      "inputs": [
        {
          "indexed": true,
          "internalType": "address",
          "name": "owner",
          "type": "address"
        },
        {
          "indexed": true,
          "internalType": "address",
          "name": "spender",
          "type": "address"
        },
        {
          "indexed": false,
          "internalType": "uint256",
          "name": "value",
          "type": "uint256"
        }
      ],
      "name": "Approval",
      "type": "event"
    },
    {
      "anonymous": false,
      "inputs": [
        {
          "indexed": true,
          "internalType": "address",
          "name": "sender",
          "type": "address"
        },
        {
          "indexed": false,
          "internalType": "uint256",
          "name": "amount0",
          "type": "uint256"
        },
        {
          "indexed": false,
          "internalType": "uint256",
          "name": "amount1",
          "type": "uint256"
        },
        {
          "indexed": true,
          "internalType": "address",
          "name": "to",
          "type": "address"
        }
      ],
      "name": "Burn",
      "type": "event"
    },
    {
      "anonymous": false,
      "inputs": [
        {
          "indexed": true,
          "internalType": "address",
          "name": "sender",
          "type": "address"
        },
        {
          "indexed": true,
          "internalType": "address",
          "name": "recipient",
          "type": "address"
        },
        {
          "indexed": false,
          "internalType": "uint256",
          "name": "amount0",
          "type": "uint256"
        },
        {
          "indexed": false,
          "internalType": "uint256",
          "name": "amount1",
          "type": "uint256"
        }
      ],
      "name": "Claim",
      "type": "event"
    },
    {
      "anonymous": false,
      "inputs": [
        {
          "indexed": true,
          "internalType": "address",
          "name": "sender",
          "type": "address"
        },
        {
          "indexed": false,
          "internalType": "uint256",
          "name": "amount0",
          "type": "uint256"
        },
        {
          "indexed": false,
          "internalType": "uint256",
          "name": "amount1",
          "type": "uint256"
        }
      ],
      "name": "Fees",
      "type": "event"
    },
    {
      "anonymous": false,
      "inputs": [
        {
          "indexed": true,
          "internalType": "address",
          "name": "sender",
          "type": "address"
        },
        {
          "indexed": false,
          "internalType": "uint256",
          "name": "amount0",
          "type": "uint256"
        },
        {
          "indexed": false,
          "internalType": "uint256",
          "name": "amount1",
          "type": "uint256"
        }
      ],
      "name": "Mint",
      "type": "event"
    },
    {
      "anonymous": false,
      "inputs": [
        {
          "indexed": true,
          "internalType": "address",
          "name": "sender",
          "type": "address"
        },
        {
          "indexed": false,
          "internalType": "uint256",
          "name": "amount0In",
          "type": "uint256"
        },
        {
          "indexed": false,
          "internalType": "uint256",
          "name": "amount1In",
          "type": "uint256"
        },
        {
          "indexed": false,
          "internalType": "uint256",
          "name": "amount0Out",
          "type": "uint256"
        },
        {
          "indexed": false,
          "internalType": "uint256",
          "name": "amount1Out",
          "type": "uint256"
        },
        {
          "indexed": true,
          "internalType": "address",
          "name": "to",
          "type": "address"
        }
      ],
      "name": "Swap",
      "type": "event"
    },
    {
      "anonymous": false,
      "inputs": [
        {
          "indexed": false,
          "internalType": "uint256",
          "name": "reserve0",
          "type": "uint256"
        },
        {
          "indexed": false,
          "internalType": "uint256",
          "name": "reserve1",
          "type": "uint256"
        }
      ],
      "name": "Sync",
      "type": "event"
    },
    {
      "anonymous": false,
      "inputs": [
        {
          "indexed": true,
          "internalType": "address",
          "name": "from",
          "type": "address"
        },
        {
          "indexed": true,
          "internalType": "address",
          "name": "to",
          "type": "address"
        },
        {
          "indexed": false,
          "internalType": "uint256",
          "name": "value",
          "type": "uint256"
        }
      ],
      "name": "Transfer",
      "type": "event"
    },
    {
      "anonymous": false,
      "inputs": [
        {
          "indexed": true,
          "internalType": "address",
          "name": "sender",
          "type": "address"
        },
        {
          "indexed": false,
          "internalType": "uint256",
          "name": "amount0",
          "type": "uint256"
        },
        {
          "indexed": false,
          "internalType": "uint256",
          "name": "amount1",
          "type": "uint256"
        }
      ],
      "name": "Treasury",
      "type": "event"
    },
    {
      "inputs": [],
      "name": "DOMAIN_SEPARATOR",
      "outputs": [
        {
          "internalType": "bytes32",
          "name": "",
          "type": "bytes32"
        }
      ],
      "stateMutability": "view",
      "type": "function"
    },
    {
      "inputs": [],
      "name": "PERMIT_TYPEHASH",
      "outputs": [
        {
          "internalType": "bytes32",
          "name": "",
          "type": "bytes32"
        }
      ],
      "stateMutability": "view",
      "type": "function"
    },
    {
      "inputs": [
        {
          "internalType": "address",
          "name": "",
          "type": "address"
        },
        {
          "internalType": "address",
          "name": "",
          "type": "address"
        }
      ],
      "name": "allowance",
      "outputs": [
        {
          "internalType": "uint256",
          "name": "",
          "type": "uint256"
        }
      ],
      "stateMutability": "view",
      "type": "function"
    },
    {
      "inputs": [
        {
          "internalType": "address",
          "name": "spender",
          "type": "address"
        },
        {
          "internalType": "uint256",
          "name": "amount",
          "type": "uint256"
        }
      ],
      "name": "approve",
      "outputs": [
        {
          "internalType": "bool",
          "name": "",
          "type": "bool"
        }
      ],
      "stateMutability": "nonpayable",
      "type": "function"
    },
    {
      "inputs": [
        {
          "internalType": "address",
          "name": "",
          "type": "address"
        }
      ],
      "name": "balanceOf",
      "outputs": [
        {
          "internalType": "uint256",
          "name": "",
          "type": "uint256"
        }
      ],
      "stateMutability": "view",
      "type": "function"
    },
    {
      "inputs": [],
      "name": "blockTimestampLast",
      "outputs": [
        {
          "internalType": "uint256",
          "name": "",
          "type": "uint256"
        }
      ],
      "stateMutability": "view",
      "type": "function"
    },
    {
      "inputs": [
        {
          "internalType": "address",
          "name": "to",
          "type": "address"
        }
      ],
      "name": "burn",
      "outputs": [
        {
          "internalType": "uint256",
          "name": "amount0",
          "type": "uint256"
        },
        {
          "internalType": "uint256",
          "name": "amount1",
          "type": "uint256"
        }
      ],
      "stateMutability": "nonpayable",
      "type": "function"
    },
    {
      "inputs": [],
      "name": "chainId",
      "outputs": [
        {
          "internalType": "uint256",
          "name": "",
          "type": "uint256"
        }
      ],
      "stateMutability": "view",
      "type": "function"
    },
    {
      "inputs": [],
      "name": "claimFees",
      "outputs": [
        {
          "internalType": "uint256",
          "name": "claimed0",
          "type": "uint256"
        },
        {
          "internalType": "uint256",
          "name": "claimed1",
          "type": "uint256"
        }
      ],
      "stateMutability": "nonpayable",
      "type": "function"
    },
    {
      "inputs": [
        {
          "internalType": "address",
          "name": "",
          "type": "address"
        }
      ],
      "name": "claimable0",
      "outputs": [
        {
          "internalType": "uint256",
          "name": "",
          "type": "uint256"
        }
      ],
      "stateMutability": "view",
      "type": "function"
    },
    {
      "inputs": [
        {
          "internalType": "address",
          "name": "",
          "type": "address"
        }
      ],
      "name": "claimable1",
      "outputs": [
        {
          "internalType": "uint256",
          "name": "",
          "type": "uint256"
        }
      ],
      "stateMutability": "view",
      "type": "function"
    },
    {
      "inputs": [
        {
          "internalType": "address",
          "name": "tokenIn",
          "type": "address"
        },
        {
          "internalType": "uint256",
          "name": "amountIn",
          "type": "uint256"
        }
      ],
      "name": "current",
      "outputs": [
        {
          "internalType": "uint256",
          "name": "amountOut",
          "type": "uint256"
        }
      ],
      "stateMutability": "view",
      "type": "function"
    },
    {
      "inputs": [],
      "name": "currentCumulativePrices",
      "outputs": [
        {
          "internalType": "uint256",
          "name": "reserve0Cumulative",
          "type": "uint256"
        },
        {
          "internalType": "uint256",
          "name": "reserve1Cumulative",
          "type": "uint256"
        },
        {
          "internalType": "uint256",
          "name": "blockTimestamp",
          "type": "uint256"
        }
      ],
      "stateMutability": "view",
      "type": "function"
    },
    {
      "inputs": [],
      "name": "decimals",
      "outputs": [
        {
          "internalType": "uint8",
          "name": "",
          "type": "uint8"
        }
      ],
      "stateMutability": "view",
      "type": "function"
    },
    {
      "inputs": [],
      "name": "factory",
      "outputs": [
        {
          "internalType": "address",
          "name": "",
          "type": "address"
        }
      ],
      "stateMutability": "view",
      "type": "function"
    },
    {
      "inputs": [],
      "name": "fees",
      "outputs": [
        {
          "internalType": "address",
          "name": "",
          "type": "address"
        }
      ],
      "stateMutability": "view",
      "type": "function"
    },
    {
      "inputs": [
        {
          "internalType": "uint256",
          "name": "amountIn",
          "type": "uint256"
        },
        {
          "internalType": "address",
          "name": "tokenIn",
          "type": "address"
        }
      ],
      "name": "getAmountOut",
      "outputs": [
        {
          "internalType": "uint256",
          "name": "",
          "type": "uint256"
        }
      ],
      "stateMutability": "view",
      "type": "function"
    },
    {
      "inputs": [],
      "name": "getReserves",
      "outputs": [
        {
          "internalType": "uint112",
          "name": "_reserve0",
          "type": "uint112"
        },
        {
          "internalType": "uint112",
          "name": "_reserve1",
          "type": "uint112"
        },
        {
          "internalType": "uint32",
          "name": "_blockTimestampLast",
          "type": "uint32"
        }
      ],
      "stateMutability": "view",
      "type": "function"
    },
    {
      "inputs": [],
      "name": "index0",
      "outputs": [
        {
          "internalType": "uint256",
          "name": "",
          "type": "uint256"
        }
      ],
      "stateMutability": "view",
      "type": "function"
    },
    {
      "inputs": [],
      "name": "index1",
      "outputs": [
        {
          "internalType": "uint256",
          "name": "",
          "type": "uint256"
        }
      ],
      "stateMutability": "view",
      "type": "function"
    },
    {
      "inputs": [],
      "name": "lastObservation",
      "outputs": [
        {
          "components": [
            {
              "internalType": "uint256",
              "name": "timestamp",
              "type": "uint256"
            },
            {
              "internalType": "uint256",
              "name": "reserve0Cumulative",
              "type": "uint256"
            },
            {
              "internalType": "uint256",
              "name": "reserve1Cumulative",
              "type": "uint256"
            }
          ],
          "internalType": "struct IPair.Observation",
          "name": "",
          "type": "tuple"
        }
      ],
      "stateMutability": "view",
      "type": "function"
    },
    {
      "inputs": [],
      "name": "metadata",
      "outputs": [
        {
          "internalType": "uint256",
          "name": "dec0",
          "type": "uint256"
        },
        {
          "internalType": "uint256",
          "name": "dec1",
          "type": "uint256"
        },
        {
          "internalType": "uint256",
          "name": "r0",
          "type": "uint256"
        },
        {
          "internalType": "uint256",
          "name": "r1",
          "type": "uint256"
        },
        {
          "internalType": "bool",
          "name": "st",
          "type": "bool"
        },
        {
          "internalType": "address",
          "name": "t0",
          "type": "address"
        },
        {
          "internalType": "address",
          "name": "t1",
          "type": "address"
        }
      ],
      "stateMutability": "view",
      "type": "function"
    },
    {
      "inputs": [
        {
          "internalType": "address",
          "name": "to",
          "type": "address"
        }
      ],
      "name": "mint",
      "outputs": [
        {
          "internalType": "uint256",
          "name": "liquidity",
          "type": "uint256"
        }
      ],
      "stateMutability": "nonpayable",
      "type": "function"
    },
    {
      "inputs": [],
      "name": "name",
      "outputs": [
        {
          "internalType": "string",
          "name": "",
          "type": "string"
        }
      ],
      "stateMutability": "view",
      "type": "function"
    },
    {
      "inputs": [
        {
          "internalType": "address",
          "name": "",
          "type": "address"
        }
      ],
      "name": "nonces",
      "outputs": [
        {
          "internalType": "uint256",
          "name": "",
          "type": "uint256"
        }
      ],
      "stateMutability": "view",
      "type": "function"
    },
    {
      "inputs": [],
      "name": "observationLength",
      "outputs": [
        {
          "internalType": "uint256",
          "name": "",
          "type": "uint256"
        }
      ],
      "stateMutability": "view",
      "type": "function"
    },
    {
      "inputs": [
        {
          "internalType": "uint256",
          "name": "",
          "type": "uint256"
        }
      ],
      "name": "observations",
      "outputs": [
        {
          "internalType": "uint256",
          "name": "timestamp",
          "type": "uint256"
        },
        {
          "internalType": "uint256",
          "name": "reserve0Cumulative",
          "type": "uint256"
        },
        {
          "internalType": "uint256",
          "name": "reserve1Cumulative",
          "type": "uint256"
        }
      ],
      "stateMutability": "view",
      "type": "function"
    },
    {
      "inputs": [
        {
          "internalType": "address",
          "name": "owner",
          "type": "address"
        },
        {
          "internalType": "address",
          "name": "spender",
          "type": "address"
        },
        {
          "internalType": "uint256",
          "name": "value",
          "type": "uint256"
        },
        {
          "internalType": "uint256",
          "name": "deadline",
          "type": "uint256"
        },
        {
          "internalType": "uint8",
          "name": "v",
          "type": "uint8"
        },
        {
          "internalType": "bytes32",
          "name": "r",
          "type": "bytes32"
        },
        {
          "internalType": "bytes32",
          "name": "s",
          "type": "bytes32"
        }
      ],
      "name": "permit",
      "outputs": [],
      "stateMutability": "nonpayable",
      "type": "function"
    },
    {
      "inputs": [
        {
          "internalType": "address",
          "name": "tokenIn",
          "type": "address"
        },
        {
          "internalType": "uint256",
          "name": "amountIn",
          "type": "uint256"
        },
        {
          "internalType": "uint256",
          "name": "points",
          "type": "uint256"
        }
      ],
      "name": "prices",
      "outputs": [
        {
          "internalType": "uint256[]",
          "name": "",
          "type": "uint256[]"
        }
      ],
      "stateMutability": "view",
      "type": "function"
    },
    {
      "inputs": [
        {
          "internalType": "address",
          "name": "tokenIn",
          "type": "address"
        },
        {
          "internalType": "uint256",
          "name": "amountIn",
          "type": "uint256"
        },
        {
          "internalType": "uint256",
          "name": "granularity",
          "type": "uint256"
        }
      ],
      "name": "quote",
      "outputs": [
        {
          "internalType": "uint256",
          "name": "amountOut",
          "type": "uint256"
        }
      ],
      "stateMutability": "view",
      "type": "function"
    },
    {
      "inputs": [],
      "name": "reserve0",
      "outputs": [
        {
          "internalType": "uint256",
          "name": "",
          "type": "uint256"
        }
      ],
      "stateMutability": "view",
      "type": "function"
    },
    {
      "inputs": [],
      "name": "reserve0CumulativeLast",
      "outputs": [
        {
          "internalType": "uint256",
          "name": "",
          "type": "uint256"
        }
      ],
      "stateMutability": "view",
      "type": "function"
    },
    {
      "inputs": [],
      "name": "reserve1",
      "outputs": [
        {
          "internalType": "uint256",
          "name": "",
          "type": "uint256"
        }
      ],
      "stateMutability": "view",
      "type": "function"
    },
    {
      "inputs": [],
      "name": "reserve1CumulativeLast",
      "outputs": [
        {
          "internalType": "uint256",
          "name": "",
          "type": "uint256"
        }
      ],
      "stateMutability": "view",
      "type": "function"
    },
    {
      "inputs": [
        {
          "internalType": "address",
          "name": "tokenIn",
          "type": "address"
        },
        {
          "internalType": "uint256",
          "name": "amountIn",
          "type": "uint256"
        },
        {
          "internalType": "uint256",
          "name": "points",
          "type": "uint256"
        },
        {
          "internalType": "uint256",
          "name": "window",
          "type": "uint256"
        }
      ],
      "name": "sample",
      "outputs": [
        {
          "internalType": "uint256[]",
          "name": "",
          "type": "uint256[]"
        }
      ],
      "stateMutability": "view",
      "type": "function"
    },
    {
      "inputs": [
        {
          "internalType": "address",
          "name": "to",
          "type": "address"
        }
      ],
      "name": "skim",
      "outputs": [],
      "stateMutability": "nonpayable",
      "type": "function"
    },
    {
      "inputs": [],
      "name": "stable",
      "outputs": [
        {
          "internalType": "bool",
          "name": "",
          "type": "bool"
        }
      ],
      "stateMutability": "view",
      "type": "function"
    },
    {
      "inputs": [
        {
          "internalType": "address",
          "name": "",
          "type": "address"
        }
      ],
      "name": "supplyIndex0",
      "outputs": [
        {
          "internalType": "uint256",
          "name": "",
          "type": "uint256"
        }
      ],
      "stateMutability": "view",
      "type": "function"
    },
    {
      "inputs": [
        {
          "internalType": "address",
          "name": "",
          "type": "address"
        }
      ],
      "name": "supplyIndex1",
      "outputs": [
        {
          "internalType": "uint256",
          "name": "",
          "type": "uint256"
        }
      ],
      "stateMutability": "view",
      "type": "function"
    },
    {
      "inputs": [
        {
          "internalType": "uint256",
          "name": "amount0Out",
          "type": "uint256"
        },
        {
          "internalType": "uint256",
          "name": "amount1Out",
          "type": "uint256"
        },
        {
          "internalType": "address",
          "name": "to",
          "type": "address"
        },
        {
          "internalType": "bytes",
          "name": "data",
          "type": "bytes"
        }
      ],
      "name": "swap",
      "outputs": [],
      "stateMutability": "nonpayable",
      "type": "function"
    },
    {
      "inputs": [],
      "name": "symbol",
      "outputs": [
        {
          "internalType": "string",
          "name": "",
          "type": "string"
        }
      ],
      "stateMutability": "view",
      "type": "function"
    },
    {
      "inputs": [],
      "name": "sync",
      "outputs": [],
      "stateMutability": "nonpayable",
      "type": "function"
    },
    {
      "inputs": [],
      "name": "token0",
      "outputs": [
        {
          "internalType": "address",
          "name": "",
          "type": "address"
        }
      ],
      "stateMutability": "view",
      "type": "function"
    },
    {
      "inputs": [],
      "name": "token1",
      "outputs": [
        {
          "internalType": "address",
          "name": "",
          "type": "address"
        }
      ],
      "stateMutability": "view",
      "type": "function"
    },
    {
      "inputs": [],
      "name": "tokens",
      "outputs": [
        {
          "internalType": "address",
          "name": "",
          "type": "address"
        },
        {
          "internalType": "address",
          "name": "",
          "type": "address"
        }
      ],
      "stateMutability": "view",
      "type": "function"
    },
    {
      "inputs": [],
      "name": "totalSupply",
      "outputs": [
        {
          "internalType": "uint256",
          "name": "",
          "type": "uint256"
        }
      ],
      "stateMutability": "view",
      "type": "function"
    },
    {
      "inputs": [
        {
          "internalType": "address",
          "name": "dst",
          "type": "address"
        },
        {
          "internalType": "uint256",
          "name": "amount",
          "type": "uint256"
        }
      ],
      "name": "transfer",
      "outputs": [
        {
          "internalType": "bool",
          "name": "",
          "type": "bool"
        }
      ],
      "stateMutability": "nonpayable",
      "type": "function"
    },
    {
      "inputs": [
        {
          "internalType": "address",
          "name": "src",
          "type": "address"
        },
        {
          "internalType": "address",
          "name": "dst",
          "type": "address"
        },
        {
          "internalType": "uint256",
          "name": "amount",
          "type": "uint256"
        }
      ],
      "name": "transferFrom",
      "outputs": [
        {
          "internalType": "bool",
          "name": "",
          "type": "bool"
        }
      ],
      "stateMutability": "nonpayable",
      "type": "function"
    }
  ],
  "bytecode": "0x608060405260016000556000600455600060165560006017553480156200002557600080fd5b50600d80546001600160a01b031916339081179091556040805163eb13c4cf60e01b815290516000928392839263eb13c4cf916004808201926060929091908290030181865afa1580156200007e573d6000803e3d6000fd5b505050506040513d601f19601f82011682018060405250810190620000a491906200089a565b6003805482151560ff19909116179055600b80546001600160a01b038085166001600160a01b031992831617909255600a805492861692909116919091179055604051929550909350915083908390620000fe90620007c9565b6001600160a01b03928316815291166020820152604001604051809103906000f08015801562000132573d6000803e3d6000fd5b50600c80546001600160a01b0319166001600160a01b039290921691909117905580156200037857826001600160a01b03166395d89b416040518163ffffffff1660e01b8152600401600060405180830381865afa15801562000199573d6000803e3d6000fd5b505050506040513d6000823e601f3d908101601f19168201604052620001c3919081019062000935565b826001600160a01b03166395d89b416040518163ffffffff1660e01b8152600401600060405180830381865afa15801562000202573d6000803e3d6000fd5b505050506040513d6000823e601f3d908101601f191682016040526200022c919081019062000935565b6040516020016200023f929190620009ed565b6040516020818303038152906040526001908051906020019062000265929190620007d7565b50826001600160a01b03166395d89b416040518163ffffffff1660e01b8152600401600060405180830381865afa158015620002a5573d6000803e3d6000fd5b505050506040513d6000823e601f3d908101601f19168201604052620002cf919081019062000935565b826001600160a01b03166395d89b416040518163ffffffff1660e01b8152600401600060405180830381865afa1580156200030e573d6000803e3d6000fd5b505050506040513d6000823e601f3d908101601f1916820160405262000338919081019062000935565b6040516020016200034b92919062000a48565b6040516020818303038152906040526002908051906020019062000371929190620007d7565b5062000591565b826001600160a01b03166395d89b416040518163ffffffff1660e01b8152600401600060405180830381865afa158015620003b7573d6000803e3d6000fd5b505050506040513d6000823e601f3d908101601f19168201604052620003e1919081019062000935565b826001600160a01b03166395d89b416040518163ffffffff1660e01b8152600401600060405180830381865afa15801562000420573d6000803e3d6000fd5b505050506040513d6000823e601f3d908101601f191682016040526200044a919081019062000935565b6040516020016200045d92919062000a99565b6040516020818303038152906040526001908051906020019062000483929190620007d7565b50826001600160a01b03166395d89b416040518163ffffffff1660e01b8152600401600060405180830381865afa158015620004c3573d6000803e3d6000fd5b505050506040513d6000823e601f3d908101601f19168201604052620004ed919081019062000935565b826001600160a01b03166395d89b416040518163ffffffff1660e01b8152600401600060405180830381865afa1580156200052c573d6000803e3d6000fd5b505050506040513d6000823e601f3d908101601f1916820160405262000556919081019062000935565b6040516020016200056992919062000af6565b604051602081830303815290604052600290805190602001906200058f929190620007d7565b505b826001600160a01b031663313ce5676040518163ffffffff1660e01b81526004016020604051808303816000875af1158015620005d2573d6000803e3d6000fd5b505050506040513d601f19601f82011682018060405250810190620005f8919062000b18565b6200060590600a62000c59565b600f81905550816001600160a01b031663313ce5676040518163ffffffff1660e01b81526004016020604051808303816000875af11580156200064c573d6000803e3d6000fd5b505050506040513d601f19601f8201168201806040525081019062000672919062000b18565b6200067f90600a62000c59565b60105560408051606081018252428152600060208201818152828401828152600e8054600180820183559190945293517fbb7b4a454dc3493923482f07822329ed19e8244eff582cc204f8554c3620c3fd60039094029384015590517fbb7b4a454dc3493923482f07822329ed19e8244eff582cc204f8554c3620c3fe830155517fbb7b4a454dc3493923482f07822329ed19e8244eff582cc204f8554c3620c3ff9091015590517f8b73c3c69bb8fe3d512ecc4cf759cc79239f7b179b0ffacaa9a75d522b39400f91620007549162000ca6565b6040805191829003822060208301939093528101919091527fc89efdaa54c0f20c7adf612882df0950f5a951637e0307cdcb4c672f298b8bc660608201524660808201523060a082015260c00160408051601f1981840301815291905280516020909101206007555050466009555062000d49565b6104c7806200433a83390190565b828054620007e59062000c6a565b90600052602060002090601f01602090048101928262000809576000855562000854565b82601f106200082457805160ff191683800117855562000854565b8280016001018555821562000854579182015b828111156200085457825182559160200191906001019062000837565b506200086292915062000866565b5090565b5b8082111562000862576000815560010162000867565b80516001600160a01b03811681146200089557600080fd5b919050565b600080600060608486031215620008b057600080fd5b620008bb846200087d565b9250620008cb602085016200087d565b915060408401518015158114620008e157600080fd5b809150509250925092565b634e487b7160e01b600052604160045260246000fd5b60005b838110156200091f57818101518382015260200162000905565b838111156200092f576000848401525b50505050565b6000602082840312156200094857600080fd5b81516001600160401b03808211156200096057600080fd5b818401915084601f8301126200097557600080fd5b8151818111156200098a576200098a620008ec565b604051601f8201601f19908116603f01168101908382118183101715620009b557620009b5620008ec565b81604052828152876020848701011115620009cf57600080fd5b620009e283602083016020880162000902565b979650505050505050565b6e029ba30b13632ab189020a6a690169608d1b81526000835162000a1981600f85016020880162000902565b602f60f81b600f91840191820152835162000a3c81601084016020880162000902565b01601001949350505050565b6473414d4d2d60d81b81526000835162000a6a81600585016020880162000902565b602f60f81b600591840191820152835162000a8d81600684016020880162000902565b01600601949350505050565b7002b37b630ba34b632ab189020a6a690169607d1b81526000835162000ac781601185016020880162000902565b602f60f81b601191840191820152835162000aea81601284016020880162000902565b01601201949350505050565b6476414d4d2d60d81b81526000835162000a6a81600585016020880162000902565b60006020828403121562000b2b57600080fd5b815160ff8116811462000b3d57600080fd5b9392505050565b634e487b7160e01b600052601160045260246000fd5b600181815b8085111562000b9b57816000190482111562000b7f5762000b7f62000b44565b8085161562000b8d57918102915b93841c939080029062000b5f565b509250929050565b60008262000bb45750600162000c53565b8162000bc35750600062000c53565b816001811462000bdc576002811462000be75762000c07565b600191505062000c53565b60ff84111562000bfb5762000bfb62000b44565b50506001821b62000c53565b5060208310610133831016604e8410600b841016171562000c2c575081810a62000c53565b62000c38838362000b5a565b806000190482111562000c4f5762000c4f62000b44565b0290505b92915050565b600062000b3d60ff84168362000ba3565b600181811c9082168062000c7f57607f821691505b60208210810362000ca057634e487b7160e01b600052602260045260246000fd5b50919050565b600080835481600182811c91508083168062000cc357607f831692505b6020808410820362000ce357634e487b7160e01b86526022600452602486fd5b81801562000cfa576001811462000d0c5762000d3b565b60ff1986168952848901965062000d3b565b60008a81526020902060005b8681101562000d335781548b82015290850190830162000d18565b505084890196505b509498975050505050505050565b6135e18062000d596000396000f3fe608060405234801561001057600080fd5b50600436106102a05760003560e01c80637ecebe0011610167578063bda39cad116100ce578063d294f09311610087578063d294f093146106c0578063d505accf146106c8578063dd62ed3e146106db578063ebeb31db14610706578063f140a35a1461070e578063fff6cae91461072157600080fd5b8063bda39cad14610676578063bf944dbc1461067f578063c245febc14610688578063c45a015514610691578063c5700a02146106a4578063d21220a7146106ad57600080fd5b80639d63848a116101205780639d63848a146105d75780639e8cc04b146105fd5780639f767c8814610610578063a1ac4d1314610630578063a9059cbb14610650578063bc25cf771461066357600080fd5b80637ecebe001461054157806389afcb44146105615780638a7b8cf21461058957806395d89b41146105b35780639a8a0592146105bb5780639af1d35a146105c457600080fd5b806330adf81f1161020b5780634d5a9f8a116101c45780634d5a9f8a146104bf578063517b3f82146104df5780635881c475146104f25780635a76f25e146105055780636a6278421461050e57806370a082311461052157600080fd5b806330adf81f14610408578063313ce5671461042f57806332c0defd146104495780633644e51514610452578063392f37e91461045b578063443cb4bc146104b657600080fd5b806318160ddd1161025d57806318160ddd1461037b5780631df8c71714610392578063205aabf1146103b557806322be3de1146103d557806323b872dd146103e2578063252c09d7146103f557600080fd5b8063022c0d9f146102a557806306fdde03146102ba5780630902f1ac146102d8578063095ea7b31461030d5780630dfe16811461033057806313345fe11461035b575b600080fd5b6102b86102b336600461309f565b610729565b005b6102c2610d68565b6040516102cf9190613165565b60405180910390f35b601154601254601354604080516001600160701b03948516815293909216602084015263ffffffff16908201526060016102cf565b61032061031b366004613198565b610df6565b60405190151581526020016102cf565b600a54610343906001600160a01b031681565b6040516001600160a01b0390911681526020016102cf565b61036e6103693660046131c4565b610ec1565b6040516102cf91906131ff565b61038460045481565b6040519081526020016102cf565b61039a6110c9565b604080519384526020840192909252908201526060016102cf565b6103846103c3366004613243565b60196020526000908152604090205481565b6003546103209060ff1681565b6103206103f0366004613260565b611131565b61039a6104033660046132a1565b61123f565b6103847f6e71edae12b1b97f4d1f60370fef10105fa2faae0126114a169c64845d6126c981565b610437601281565b60405160ff90911681526020016102cf565b61038460165481565b61038460075481565b600f54601054601154601254600354600a54600b5460408051978852602088019690965294860193909352606085019190915260ff16151560808401526001600160a01b0390811660a08401521660c082015260e0016102cf565b61038460115481565b6103846104cd366004613243565b601a6020526000908152604090205481565b6103846104ed366004613198565b611272565b61036e6105003660046132ba565b61135a565b61038460125481565b61038461051c366004613243565b611369565b61038461052f366004613243565b60066020526000908152604090205481565b61038461054f366004613243565b60086020526000908152604090205481565b61057461056f366004613243565b6115d1565b604080519283526020830191909152016102cf565b61059161190b565b60408051825181526020808401519082015291810151908201526060016102cf565b6102c261198b565b61038460095481565b600c54610343906001600160a01b031681565b600a54600b54604080516001600160a01b039384168152929091166020830152016102cf565b61038461060b3660046132ba565b611998565b61038461061e366004613243565b60186020526000908152604090205481565b61038461063e366004613243565b601b6020526000908152604090205481565b61032061065e366004613198565b611a05565b6102b8610671366004613243565b611a1b565b61038460175481565b61038460145481565b61038460155481565b600d54610343906001600160a01b031681565b61038460135481565b600b54610343906001600160a01b031681565b610574611b71565b6102b86106d63660046132ef565b611c7b565b6103846106e9366004613366565b600560209081526000928352604080842090915290825290205481565b600e54610384565b61038461071c36600461339f565b611edf565b6102b8611f13565b6000546001146107545760405162461bcd60e51b815260040161074b906133c4565b60405180910390fd5b6002600055600d54604080516358c3de9360e11b815290516001600160a01b039092169163b187bd26916004808201926020929091908290030181865afa1580156107a3573d6000803e3d6000fd5b505050506040513d601f19601f820116820180604052508101906107c791906133ec565b156108065760405162461bcd60e51b815260206004820152600f60248201526e566f6c74506169723a20504155534560881b604482015260640161074b565b60008511806108155750600084115b61086d5760405162461bcd60e51b8152602060048201526024808201527f566f6c74506169723a20494e53554646494349454e545f4f55545055545f414d60448201526313d5539560e21b606482015260840161074b565b601154601254818710801561088157508086105b6108cd5760405162461bcd60e51b815260206004820181905260248201527f566f6c74506169723a20494e53554646494349454e545f4c4951554944495459604482015260640161074b565b600a54600b5460009182916001600160a01b0391821691908116908916821480159061090b5750806001600160a01b0316896001600160a01b031614155b61094e5760405162461bcd60e51b8152602060048201526014602482015273566f6c74506169723a20494e56414c49445f544f60601b604482015260640161074b565b8a15610968576109686001600160a01b0383168a8d612026565b8915610982576109826001600160a01b0382168a8c612026565b86156109ef57604051639a7bff7960e01b81526001600160a01b038a1690639a7bff79906109bc9033908f908f908e908e9060040161340e565b600060405180830381600087803b1580156109d657600080fd5b505af11580156109ea573d6000803e3d6000fd5b505050505b6040516370a0823160e01b81523060048201526001600160a01b038316906370a0823190602401602060405180830381865afa158015610a33573d6000803e3d6000fd5b505050506040513d601f19601f82011682018060405250810190610a57919061345a565b6040516370a0823160e01b81523060048201529094506001600160a01b038216906370a0823190602401602060405180830381865afa158015610a9e573d6000803e3d6000fd5b505050506040513d601f19601f82011682018060405250810190610ac2919061345a565b9250505060008985610ad49190613489565b8311610ae1576000610af5565b610aeb8a86613489565b610af59084613489565b90506000610b038a86613489565b8311610b10576000610b24565b610b1a8a86613489565b610b249084613489565b90506000821180610b355750600081115b610b8d5760405162461bcd60e51b815260206004820152602360248201527f566f6c74506169723a20494e53554646494349454e545f494e5055545f414d4f60448201526215539560ea1b606482015260840161074b565b600a54600b546001600160a01b0391821691168315610bb757610bb7610bb28561207d565b6120b6565b8215610bce57610bce610bc98461207d565b612259565b6040516370a0823160e01b81523060048201526001600160a01b038316906370a0823190602401602060405180830381865afa158015610c12573d6000803e3d6000fd5b505050506040513d601f19601f82011682018060405250810190610c36919061345a565b6040516370a0823160e01b81523060048201529096506001600160a01b038216906370a0823190602401602060405180830381865afa158015610c7d573d6000803e3d6000fd5b505050506040513d601f19601f82011682018060405250810190610ca1919061345a565b9450610cad88886123f3565b610cb787876123f3565b1015610cf35760405162461bcd60e51b815260206004820152600b60248201526a566f6c74506169723a204b60a81b604482015260640161074b565b5050610d01848488886124ec565b60408051838152602081018390529081018c9052606081018b90526001600160a01b038a169033907fd78ad95fa46c994b6551d0da85fc275fe613ce37657fb8d5e3d130840159d8229060800160405180910390a350506001600055505050505050505050565b60018054610d75906134a0565b80601f0160208091040260200160405190810160405280929190818152602001828054610da1906134a0565b8015610dee5780601f10610dc357610100808354040283529160200191610dee565b820191906000526020600020905b815481529060010190602001808311610dd157829003601f168201915b505050505081565b60006001600160a01b038316610e5c5760405162461bcd60e51b815260206004820152602560248201527f566f6c74506169723a20417070726f766520746f20746865207a65726f206164604482015264647265737360d81b606482015260840161074b565b3360008181526005602090815260408083206001600160a01b03881680855290835292819020869055518581529192917f8c5be1e5ebec7d5bd14f71427d1e84f3dd0314c0f7b2291e5b200ac8c7c3b925910160405180910390a35060015b92915050565b606060008367ffffffffffffffff811115610ede57610ede6134d4565b604051908082528060200260200182016040528015610f07578160200160208202803683370190505b50600e54909150600090610f1d90600190613489565b90506000610f2b85876134ea565b610f359083613489565b90506000805b838310156110b957610f4d8784613509565b91506000600e8481548110610f6457610f64613521565b906000526020600020906003020160000154600e8481548110610f8957610f89613521565b906000526020600020906003020160000154610fa59190613489565b9050600081600e8681548110610fbd57610fbd613521565b906000526020600020906003020160010154600e8681548110610fe257610fe2613521565b906000526020600020906003020160010154610ffe9190613489565b6110089190613537565b9050600082600e878154811061102057611020613521565b906000526020600020906003020160020154600e878154811061104557611045613521565b9060005260206000209060030201600201546110619190613489565b61106b9190613537565b90506110798c8e8484612653565b88858151811061108b5761108b613521565b60209081029190910101526110a1846001613509565b935050505086836110b29190613509565b9250610f3b565b509293505050505b949350505050565b60145460155442600080806110e76011546012546013549192909190565b63ffffffff1692506001600160701b031692506001600160701b031692508381146111295760006111188286613489565b848102979097019683029590950194505b505050909192565b6001600160a01b03831660008181526005602090815260408083203380855292528220549192909190821480159061116b57506000198114155b1561122657838110156111c05760405162461bcd60e51b815260206004820181905260248201527f566f6c74506169723a20496e73756666696369656e7420616c6c6f77616e6365604482015260640161074b565b6001600160a01b03868116600081815260056020908152604080832094871680845294825291829020888603908190559151828152919392917f8c5be1e5ebec7d5bd14f71427d1e84f3dd0314c0f7b2291e5b200ac8c7c3b925910160405180910390a3505b6112318686866127f4565b6001925050505b9392505050565b600e818154811061124f57600080fd5b600091825260209091206003909102018054600182015460029092015490925083565b60008061127d61190b565b905060008061128a6110c9565b508451919350915042036112f257600e80546112a890600290613489565b815481106112b8576112b8613521565b9060005260206000209060030201604051806060016040529081600082015481526020016001820154815260200160028201548152505092505b82516000906113019042613489565b90506000818560200151856113169190613489565b6113209190613537565b90506000828660400151856113359190613489565b61133f9190613537565b905061134d888a8484612653565b9998505050505050505050565b60606110c18484846001610ec1565b6000805460011461138c5760405162461bcd60e51b815260040161074b906133c4565b60026000908155601154601254600a546040516370a0823160e01b8152306004820152929391926001600160a01b03909116906370a0823190602401602060405180830381865afa1580156113e5573d6000803e3d6000fd5b505050506040513d601f19601f82011682018060405250810190611409919061345a565b600b546040516370a0823160e01b81523060048201529192506000916001600160a01b03909116906370a0823190602401602060405180830381865afa158015611457573d6000803e3d6000fd5b505050506040513d601f19601f8201168201806040525081019061147b919061345a565b905060006114898584613489565b905060006114978584613489565b60045490915060008190036114d9576103e86114bb6114b684866134ea565b612977565b6114c59190613489565b97506114d460006103e86129e6565b61150e565b61150b876114e783866134ea565b6114f19190613537565b876114fc84866134ea565b6115069190613537565b612a79565b97505b6000881161156e5760405162461bcd60e51b815260206004820152602760248201527f566f6c74506169723a20494e53554646494349454e545f4c495155494449545960448201526617d3525395115160ca1b606482015260840161074b565b61157889896129e6565b611584858589896124ec565b604080518481526020810184905233917f4c209b5fc8ad50758f13e2e1088ba56a560dff690a1c6fef26394f4c03821c4f910160405180910390a250506001600055509395945050505050565b6000806000546001146115f65760405162461bcd60e51b815260040161074b906133c4565b60026000908155601154601254600a54600b546040516370a0823160e01b8152306004820152939492936001600160a01b039283169392909116919083906370a0823190602401602060405180830381865afa15801561165a573d6000803e3d6000fd5b505050506040513d601f19601f8201168201806040525081019061167e919061345a565b6040516370a0823160e01b81523060048201529091506000906001600160a01b038416906370a0823190602401602060405180830381865afa1580156116c8573d6000803e3d6000fd5b505050506040513d601f19601f820116820180604052508101906116ec919061345a565b30600090815260066020526040902054600454919250908061170e85846134ea565b6117189190613537565b99508061172584846134ea565b61172f9190613537565b985060008a1180156117415750600089115b61179d5760405162461bcd60e51b815260206004820152602760248201527f566f6c74506169723a20494e53554646494349454e545f4c495155494449545960448201526617d0955493915160ca1b606482015260840161074b565b6117a73083612a8f565b6117bb6001600160a01b0387168c8c612026565b6117cf6001600160a01b0386168c8b612026565b6040516370a0823160e01b81523060048201526001600160a01b038716906370a0823190602401602060405180830381865afa158015611813573d6000803e3d6000fd5b505050506040513d601f19601f82011682018060405250810190611837919061345a565b6040516370a0823160e01b81523060048201529094506001600160a01b038616906370a0823190602401602060405180830381865afa15801561187e573d6000803e3d6000fd5b505050506040513d601f19601f820116820180604052508101906118a2919061345a565b92506118b084848a8a6124ec565b604080518b8152602081018b90526001600160a01b038d169133917fdccd412f0b1252819cb1fd330b93224ca42612892bb3f4f789976e6d81936496910160405180910390a350505050505050506001600081905550915091565b61192f60405180606001604052806000815260200160008152602001600081525090565b600e805461193f90600190613489565b8154811061194f5761194f613521565b90600052602060002090600302016040518060600160405290816000820154815260200160018201548152602001600282015481525050905090565b60028054610d75906134a0565b6000806119a88585856001610ec1565b90506000805b82518110156119f0578281815181106119c9576119c9613521565b6020026020010151826119dc9190613509565b9150806119e881613559565b9150506119ae565b506119fb8482613537565b9695505050505050565b6000611a123384846127f4565b50600192915050565b600054600114611a3d5760405162461bcd60e51b815260040161074b906133c4565b6002600055600a54600b546011546040516370a0823160e01b81523060048201526001600160a01b039384169390921691611adb91859185906370a0823190602401602060405180830381865afa158015611a9c573d6000803e3d6000fd5b505050506040513d601f19601f82011682018060405250810190611ac0919061345a565b611aca9190613489565b6001600160a01b0385169190612026565b6012546040516370a0823160e01b8152306004820152611b679185916001600160a01b038516906370a0823190602401602060405180830381865afa158015611b28573d6000803e3d6000fd5b505050506040513d601f19601f82011682018060405250810190611b4c919061345a565b611b569190613489565b6001600160a01b0384169190612026565b5050600160005550565b600080611b7d33612b1a565b5050336000908152601a6020908152604080832054601b9092529091205481151580611ba95750600081115b15611c7757336000818152601a60209081526040808320839055601b90915280822091909155600c54905163299e7ae760e11b8152600481019290925260248201849052604482018390526001600160a01b03169063533cf5ce90606401600060405180830381600087803b158015611c2157600080fd5b505af1158015611c35573d6000803e3d6000fd5b505060408051858152602081018590523393508392507f865ca08d59f5cb456e85cd2f7ef63664ea4f73327414e9d8152c4158b0e94645910160405180910390a35b9091565b42841015611cbf5760405162461bcd60e51b8152602060048201526011602482015270159bdb1d14185a5c8e8811561412549151607a1b604482015260640161074b565b6007546001600160a01b038816600090815260086020526040812080549192917f6e71edae12b1b97f4d1f60370fef10105fa2faae0126114a169c64845d6126c9918b918b918b919087611d1283613559565b909155506040805160208101969096526001600160a01b0394851690860152929091166060840152608083015260a082015260c0810187905260e00160405160208183030381529060405280519060200120604051602001611d8b92919061190160f01b81526002810192909252602282015260420190565b60408051601f198184030181528282528051602091820120600080855291840180845281905260ff88169284019290925260608301869052608083018590529092509060019060a0016020604051602081039080840390855afa158015611df6573d6000803e3d6000fd5b5050604051601f1901519150506001600160a01b03811615801590611e2c5750886001600160a01b0316816001600160a01b0316145b611e785760405162461bcd60e51b815260206004820152601b60248201527f566f6c74506169723a20494e56414c49445f5349474e41545552450000000000604482015260640161074b565b6001600160a01b038981166000818152600560209081526040808320948d16808452948252918290208b905590518a81527f8c5be1e5ebec7d5bd14f71427d1e84f3dd0314c0f7b2291e5b200ac8c7c3b925910160405180910390a3505050505050505050565b60115460125460009190611ef28561207d565b611efc9086613489565b9450611f0a85858484612653565b95945050505050565b600054600114611f355760405162461bcd60e51b815260040161074b906133c4565b6002600055600a546040516370a0823160e01b815230600482015261201f916001600160a01b0316906370a0823190602401602060405180830381865afa158015611f84573d6000803e3d6000fd5b505050506040513d601f19601f82011682018060405250810190611fa8919061345a565b600b546040516370a0823160e01b81523060048201526001600160a01b03909116906370a0823190602401602060405180830381865afa158015611ff0573d6000803e3d6000fd5b505050506040513d601f19601f82011682018060405250810190612014919061345a565b6011546012546124ec565b6001600055565b604080516001600160a01b038416602482015260448082018490528251808303909101815260649091019091526020810180516001600160e01b031663a9059cbb60e01b179052612078908490612c86565b505050565b60035460009060ff16156120a3576127106120998360046134ea565b610ebb9190613537565b6103e86120998360036134ea565b919050565b600080600d60009054906101000a90046001600160a01b03166001600160a01b03166361d027b36040518163ffffffff1660e01b8152600401602060405180830381865afa15801561210c573d6000803e3d6000fd5b505050506040513d601f19601f820116820180604052508101906121309190613572565b90506001600160a01b038116156121a25761214c600284613537565b600a54909250612166906001600160a01b03168284612026565b604080518381526000602082015233917ffd26d3e0e8324438b2b556a62f87e2e5864535089e691e5119466433de1ebc61910160405180910390a25b60006121ae8385613489565b600c54600a549192506121ce916001600160a01b03908116911683612026565b6004546000906121ec6d04ee2d6d415b85acef8100000000846134ea565b6121f69190613537565b905080156122165780601660008282546122109190613509565b90915550505b604080518381526000602082015233917f112c256902bf554b6ed882d2936687aaeb4225e8cd5b51303c90ca6cf43a860291015b60405180910390a25050505050565b600080600d60009054906101000a90046001600160a01b03166001600160a01b03166361d027b36040518163ffffffff1660e01b8152600401602060405180830381865afa1580156122af573d6000803e3d6000fd5b505050506040513d601f19601f820116820180604052508101906122d39190613572565b90506001600160a01b03811615612346576122ef600284613537565b600b54909250612309906001600160a01b03168284612026565b60408051600081526020810184905233917ffd26d3e0e8324438b2b556a62f87e2e5864535089e691e5119466433de1ebc61910160405180910390a25b60006123528385613489565b600c54600b54919250612372916001600160a01b03908116911683612026565b6004546000906123906d04ee2d6d415b85acef8100000000846134ea565b61239a9190613537565b905080156123ba5780601760008282546123b49190613509565b90915550505b60408051600081526020810184905233917f112c256902bf554b6ed882d2936687aaeb4225e8cd5b51303c90ca6cf43a8602910161224a565b60035460009060ff16156124db57600f5460009061241985670de0b6b3a76400006134ea565b6124239190613537565b9050600060105484670de0b6b3a764000061243e91906134ea565b6124489190613537565b90506000670de0b6b3a764000061245f83856134ea565b6124699190613537565b90506000670de0b6b3a764000061248084806134ea565b61248a9190613537565b670de0b6b3a764000061249d86806134ea565b6124a79190613537565b6124b19190613509565b9050670de0b6b3a76400006124c682846134ea565b6124d09190613537565b945050505050610ebb565b6124e582846134ea565b9050610ebb565b60135442906000906124fe9083613489565b905060008111801561250f57508315155b801561251a57508215155b156125345760148054858302019055601580548483020190555b600061253e61190b565b805190915061254d9084613489565b9150610708821115612602576040805160608101825284815260145460208201908152601554928201928352600e805460018101825560009190915291517fbb7b4a454dc3493923482f07822329ed19e8244eff582cc204f8554c3620c3fd600390930292830155517fbb7b4a454dc3493923482f07822329ed19e8244eff582cc204f8554c3620c3fe82015590517fbb7b4a454dc3493923482f07822329ed19e8244eff582cc204f8554c3620c3ff909101555b60118790556012869055601383905560408051888152602081018890527fcf2aa50876cdfbb541206f89af0ee78d44a2abf8d328e37fa4917f982149848a910160405180910390a150505050505050565b60035460009060ff16156127a457600061266d84846123f3565b600f5490915061268585670de0b6b3a76400006134ea565b61268f9190613537565b6010549094506126a784670de0b6b3a76400006134ea565b6126b19190613537565b600a5490935060009081906001600160a01b038881169116146126d55784866126d8565b85855b600a5491935091506001600160a01b038881169116146127165760105461270789670de0b6b3a76400006134ea565b6127119190613537565b612735565b600f5461272b89670de0b6b3a76400006134ea565b6127359190613537565b9750600061274d612746848b613509565b8584612d58565b6127579083613489565b600a54909150670de0b6b3a7640000906001600160a01b038a811691161461278157600f54612785565b6010545b61278f90836134ea565b6127999190613537565b9450505050506110c1565b600a5460009081906001600160a01b038781169116146127c55783856127c8565b84845b90925090506127d78783613509565b6127e182896134ea565b6127eb9190613537565b925050506110c1565b6001600160a01b0382166128595760405162461bcd60e51b815260206004820152602660248201527f566f6c74506169723a205472616e7366657220746f20746865207a65726f206160448201526564647265737360d01b606482015260840161074b565b61286283612b1a565b61286b82612b1a565b6001600160a01b038316600090815260066020526040902054818110156128e65760405162461bcd60e51b815260206004820152602960248201527f566f6c74506169723a205472616e7366657220616d6f756e7420657863656564604482015268732062616c616e636560b81b606482015260840161074b565b6001600160a01b0380851660009081526006602052604080822085850390559185168152908120805484929061291d908490613509565b92505081905550826001600160a01b0316846001600160a01b03167fddf252ad1be2c89b69c2b068fc378daa952ba7f163c4a11628f55a4df523b3ef8460405161296991815260200190565b60405180910390a350505050565b600060038211156129d85750806000612991600283613537565b61299c906001613509565b90505b818110156129d2579050806002816129b78186613537565b6129c19190613509565b6129cb9190613537565b905061299f565b50919050565b81156120b157506001919050565b6129ef82612b1a565b8060046000828254612a019190613509565b90915550506001600160a01b03821660009081526006602052604081208054839290612a2e908490613509565b90915550506040518181526001600160a01b038316906000907fddf252ad1be2c89b69c2b068fc378daa952ba7f163c4a11628f55a4df523b3ef906020015b60405180910390a35050565b6000818310612a885781611238565b5090919050565b612a9882612b1a565b8060046000828254612aaa9190613489565b90915550506001600160a01b03821660009081526006602052604081208054839290612ad7908490613489565b90915550506040518181526000906001600160a01b038416907fddf252ad1be2c89b69c2b068fc378daa952ba7f163c4a11628f55a4df523b3ef90602001612a6d565b6001600160a01b0381166000908152600660205260409020548015612c54576001600160a01b0382166000908152601860209081526040808320805460198085529285208054601654601754948190559490955282905593612b7c8584613489565b90506000612b8a8584613489565b90508115612beb5760006d04ee2d6d415b85acef8100000000612bad848a6134ea565b612bb79190613537565b6001600160a01b038a166000908152601a6020526040812080549293508392909190612be4908490613509565b9091555050505b8015612c4a5760006d04ee2d6d415b85acef8100000000612c0c838a6134ea565b612c169190613537565b6001600160a01b038a166000908152601b6020526040812080549293508392909190612c43908490613509565b9091555050505b5050505050505050565b6016546001600160a01b0383166000908152601860209081526040808320939093556017546019909152919020555050565b6000612cdb826040518060400160405280602081526020017f5361666545524332303a206c6f772d6c6576656c2063616c6c206661696c6564815250856001600160a01b0316612e3a9092919063ffffffff16565b8051909150156120785780806020019051810190612cf991906133ec565b6120785760405162461bcd60e51b815260206004820152602a60248201527f5361666545524332303a204552433230206f7065726174696f6e20646964206e6044820152691bdd081cdd58d8d9595960b21b606482015260840161074b565b6000805b60ff811015612e3157826000612d728783612f00565b905085811015612dc2576000612d888887612f9d565b612d928389613489565b612da490670de0b6b3a76400006134ea565b612dae9190613537565b9050612dba8187613509565b955050612e04565b6000612dce8887612f9d565b612dd88884613489565b612dea90670de0b6b3a76400006134ea565b612df49190613537565b9050612e008187613489565b9550505b612e1085836001613005565b15612e1c575050612e31565b50508080612e2990613559565b915050612d5c565b50909392505050565b60606001600160a01b0384163b612e935760405162461bcd60e51b815260206004820152601d60248201527f416464726573733a2063616c6c20746f206e6f6e2d636f6e7472616374000000604482015260640161074b565b600080856001600160a01b031685604051612eae919061358f565b6000604051808303816000865af19150503d8060008114612eeb576040519150601f19603f3d011682016040523d82523d6000602084013e612ef0565b606091505b50915091506119fb82828661304e565b6000670de0b6b3a764000082818581612f1982806134ea565b612f239190613537565b612f2d91906134ea565b612f379190613537565b612f4191906134ea565b612f4b9190613537565b670de0b6b3a7640000808481612f6182806134ea565b612f6b9190613537565b612f7591906134ea565b612f7f9190613537565b612f8990866134ea565b612f939190613537565b6112389190613509565b6000670de0b6b3a76400008381612fb482806134ea565b612fbe9190613537565b612fc891906134ea565b612fd29190613537565b670de0b6b3a764000080612fe685806134ea565b612ff09190613537565b612ffb8660036134ea565b612f8991906134ea565b60008284111561302c578161301a8486613489565b1161302757506001611238565b613044565b816130378585613489565b1161304457506001611238565b5060009392505050565b6060831561305d575081611238565b82511561306d5782518084602001fd5b8160405162461bcd60e51b815260040161074b9190613165565b6001600160a01b038116811461309c57600080fd5b50565b6000806000806000608086880312156130b757600080fd5b853594506020860135935060408601356130d081613087565b9250606086013567ffffffffffffffff808211156130ed57600080fd5b818801915088601f83011261310157600080fd5b81358181111561311057600080fd5b89602082850101111561312257600080fd5b9699959850939650602001949392505050565b60005b83811015613150578181015183820152602001613138565b8381111561315f576000848401525b50505050565b6020815260008251806020840152613184816040850160208701613135565b601f01601f19169190910160400192915050565b600080604083850312156131ab57600080fd5b82356131b681613087565b946020939093013593505050565b600080600080608085870312156131da57600080fd5b84356131e581613087565b966020860135965060408601359560600135945092505050565b6020808252825182820181905260009190848201906040850190845b818110156132375783518352928401929184019160010161321b565b50909695505050505050565b60006020828403121561325557600080fd5b813561123881613087565b60008060006060848603121561327557600080fd5b833561328081613087565b9250602084013561329081613087565b929592945050506040919091013590565b6000602082840312156132b357600080fd5b5035919050565b6000806000606084860312156132cf57600080fd5b83356132da81613087565b95602085013595506040909401359392505050565b600080600080600080600060e0888a03121561330a57600080fd5b873561331581613087565b9650602088013561332581613087565b95506040880135945060608801359350608088013560ff8116811461334957600080fd5b9699959850939692959460a0840135945060c09093013592915050565b6000806040838503121561337957600080fd5b823561338481613087565b9150602083013561339481613087565b809150509250929050565b600080604083850312156133b257600080fd5b82359150602083013561339481613087565b6020808252600e908201526d1499595b9d1c985b9d0818d85b1b60921b604082015260600190565b6000602082840312156133fe57600080fd5b8151801515811461123857600080fd5b60018060a01b038616815284602082015283604082015260806060820152816080820152818360a0830137600081830160a090810191909152601f909201601f19160101949350505050565b60006020828403121561346c57600080fd5b5051919050565b634e487b7160e01b600052601160045260246000fd5b60008282101561349b5761349b613473565b500390565b600181811c908216806134b457607f821691505b6020821081036129d257634e487b7160e01b600052602260045260246000fd5b634e487b7160e01b600052604160045260246000fd5b600081600019048311821515161561350457613504613473565b500290565b6000821982111561351c5761351c613473565b500190565b634e487b7160e01b600052603260045260246000fd5b60008261355457634e487b7160e01b600052601260045260246000fd5b500490565b60006001820161356b5761356b613473565b5060010190565b60006020828403121561358457600080fd5b815161123881613087565b600082516135a1818460208701613135565b919091019291505056fea26469706673582212209a05e07479d40c117c47ffaa2ff89f9f08ea23e8555c37264ef8604496c57ef864736f6c634300080d0033608060405234801561001057600080fd5b506040516104c73803806104c783398101604081905261002f91610087565b600080546001600160a01b03199081163317909155600180546001600160a01b03948516908316179055600280549290931691161790556100ba565b80516001600160a01b038116811461008257600080fd5b919050565b6000806040838503121561009a57600080fd5b6100a38361006b565b91506100b16020840161006b565b90509250929050565b6103fe806100c96000396000f3fe608060405234801561001057600080fd5b506004361061002b5760003560e01c8063533cf5ce14610030575b600080fd5b61004361003e3660046102e6565b610045565b005b6000546001600160a01b0316331461008f5760405162461bcd60e51b81526020600482015260086024820152672737ba103830b4b960c11b60448201526064015b60405180910390fd5b81156100ac576001546100ac906001600160a01b031684846100ce565b80156100c9576002546100c9906001600160a01b031684836100ce565b505050565b604080516001600160a01b03848116602483015260448083018590528351808403909101815260649092018352602080830180516001600160e01b031663a9059cbb60e01b17905283518085019094528084527f5361666545524332303a206c6f772d6c6576656c2063616c6c206661696c6564908401526100c99286929160009161015e9185169084906101db565b8051909150156100c9578080602001905181019061017c9190610327565b6100c95760405162461bcd60e51b815260206004820152602a60248201527f5361666545524332303a204552433230206f7065726174696f6e20646964206e6044820152691bdd081cdd58d8d9595960b21b6064820152608401610086565b60606001600160a01b0384163b6102345760405162461bcd60e51b815260206004820152601d60248201527f416464726573733a2063616c6c20746f206e6f6e2d636f6e74726163740000006044820152606401610086565b600080856001600160a01b03168560405161024f9190610379565b6000604051808303816000865af19150503d806000811461028c576040519150601f19603f3d011682016040523d82523d6000602084013e610291565b606091505b50915091506102a18282866102ad565b925050505b9392505050565b606083156102bc5750816102a6565b8251156102cc5782518084602001fd5b8160405162461bcd60e51b81526004016100869190610395565b6000806000606084860312156102fb57600080fd5b83356001600160a01b038116811461031257600080fd5b95602085013595506040909401359392505050565b60006020828403121561033957600080fd5b815180151581146102a657600080fd5b60005b8381101561036457818101518382015260200161034c565b83811115610373576000848401525b50505050565b6000825161038b818460208701610349565b9190910192915050565b60208152600082518060208401526103b4816040850160208701610349565b601f01601f1916919091016040019291505056fea2646970667358221220d743dbc945051555bf0c2674ea19ab74dd26c673460e07c65de147639c7b3ff964736f6c634300080d0033",
  "linkReferences": {},
  "deployedLinkReferences": {}
}